:1000000000000320D1010000F9E70000B1E7000083
:10001000B1E70000B1E70000B1E70000B1E7000080
:10002000B1E70000B1E70000B1E70000F9E7000028
:10003000F9E70000B1E70000DDD200002DD5000097
:10004000F9E70000F9E70000F9E70000F9E7000030
:10005000F9E70000F9E70000F9E70000F9E7000020
:10006000F9E70000F9E70000F9E70000F9E7000010
:10007000F9E70000F9E70000F9E70000F9E7000000
:10008000F9E70000F9E70000F9E70000F9E70000F0
:10009000F9E70000F9E70000F9E70000F9E70000E0
:1000A0002DC9000065CA0000F9E70000F9E700006B
:1000B000F9E70000F9E70000F9E70000CDF10000E2
:1000C000F9E70000290C0100F9E70000550D0100D7
:1000D000F9E70000C1F80000F9E70000F9E70000C7
:1000E000F9E70000F9E70000F9E70000F9E7000090
:1000F000F9E70000F9E70000F9E70000F9E7000080
:100100006DD7000081D7000095D70000A9D7000067
:10011000F9E700004DFB0000F9E70000F9E70000F7
:10012000F9E70000F9E70000F9E70000F9E700004F
:10013000F9E70000F9E70000F9E70000F9E700003F
:1001400065D00000F9E700004D0E0100F9E700005E
:10015000F9E70000F9E70000F9E70000F9E700001F
:10016000F9E70000F9E700009DCB0000F9E7000087
:10017000F9E70000F9E70000F9E70000F9E70000FF
:10018000F9E70000C19D0000F9E70000F9E7000071
:10019000F9E70000F9E70000450F0100F9E700006A
:1001A000F9E70000F9E70000F9E70000F9E70000CF
:1001B000F9E70000F9E70000F9E70000F9E70000BF
:1001C000F9E70000F9E70000F9E70000F9E70000AF
:1001D0005C4B4CF2205210B51A804DF628121A8052
:1001E00000BF00BF00F0C6FA574B4FF030621A60F4
:1001F000564A9A60564ADA60564B4FF470021A60BB
:10020000554B564A1A60564A136813F4807304D14A
:1002100054490B604FF4A8531360534B1A781107DD
:1002200003D51A7842F008021A70504B5049AA229E
:100230001A70504A504B8B4204D252F8040F43F8C4
:10024000040BF8E74D4B4E4900228B4202D243F893
:10025000042BFAE74B494C4A002352F8230041F89B
:1002600023000133742BF8D1484B494A802103F80D
:10027000011B9342FBD1474B424A1A60464B8A22EC
:100280001A70A3F5805324225A70A0221A709A790A
:100290009207FCD59A79D406FCD4404A937903F0AE
:1002A0000C03082BFAD13E4B60221A7002331A78E5
:1002B000802AFCD1394B01221A715D225A719A7938
:1002C0009006FCD59979354A4906FBD5354B364918
:1002D00019600021596020231370937903F00C03F7
:1002E0000C2BFAD1314B324A1A60324B324A1A6027
:1002F00000225A60072243F8042C304AC3F80C2D20
:1003000062B60EF0C9FC174B1B68DA0705D52C48FE
:100310000EF0B0FC2B4B2C4A1A602C4B1B785B0662
:1003200009D5284C284B22689A4204D124480EF063
:10033000A1FC0023236011F03DFD0EF061FA0EF0E8
:1003400095F9FEE70E20054030800440823F04000E
:100350000100002B88ED00E0002008E0030000858C
:1003600010D0034014D0034002D0074000E0074003
:100370006055FF1F307D01003049FF1F6055FF1F92
:10038000686CFF1F0044FF1F0000000000E400E055
:1003900064E400E008ED00E0005006400040064044
:1003A00001E007404480044000000602048004404D
:1003B000C010070014E000E01FBF02000000202072
:1003C00086D5655C1CE00340A5C3945A00F0074045
:1003D000FFFFFFFFFFFFFFFFFFFFFFFFFFFFFFFF2D
:1003E000FFFFFFFFFFFFFFFFFFFFFFFFFFFFFFFF1D
:1003F000FFFFFFFFFFFFFFFFFFFFFFFFFFFFFFFF0D
:10040000FFFFFFFFFFFFFFFFFFFFFFFFDEF9FFFF23
:1004100010B5054C237833B9044B13B10448AFF33E
:1004200000800123237010BD6055FF1F00000000F5
:100430002C7D0100084B10B51BB108490848AFF3EB
:1004400000800848036803B910BD074B002BFBD0A0
:10045000BDE81040184700BF000000006455FF1FB2
:100460002C7D01006055FF1F00000000F8B55B49BE
:100470005B4D5C4C2A7894F800C00B785A48DFF842
:1004800084E15A4F5A4E1B0443EA0C23134302786B
:10049000DFF864C143EA0263FF222A7022700A7007
:1004A00080218EF800200270397031709CF806208F
:1004B000504912F00C0F0B6103D19CF80630DC069A
:1004C0003DD44D4A9379C3F38103032B41D04A4B6A
:1004D0009A79C2F38102022A43D0474A9379C3F33F
:1004E0008103022B54D0444A9379C3F38103022B36
:1004F00062D0414A9379C3F38103012B52D03E4A23
:100500009379C3F38103012B5DD03B4B9A7912F0B1
:100510000C0F03D19A79D20600D49B79374D384B12
:100520002A7853F82240DCB1236820469B6898471C
:100530002B7804EB83046468002CF5D1F8BD9CF89B
:1005400006309806EAD52C4A9379C3F38103032B2E
:10055000BDD19379D906BAD493799B06DED4B6E798
:10056000F8BD9A79D706B8D49A799606B5D5597850
:1005700001F0020101F0FF020029AED120211A7022
:100580001A461970937903F00C030C2BFAD1C5E7C6
:100590009379DD06A7D493799C06A4D45378980761
:1005A000BCD5A0E79379DF06A9D593799E06A6D49A
:1005B00053789D07B2D4A2E79379D90699D453789A
:1005C0009B07ABD495E79379DC069ED59379980683
:1005D0009BD453789907A1D597E700BF0BC007407C
:1005E00009C007400AC007400DC007400EC00740C1
:1005F0000FC007403C6CFF1F004006406466FF1FB1
:100600002466FF1F0CC0074090F92410104B0360B4
:100610004B1C06D0F0B40F4E56F82130984201D052
:10062000F0BC70470C4F57F8213033B18D000024D7
:100630005A1953685460002BFAD1084C23780022D1
:10064000013B237047F8212046F82120E8E700BF4E
:10065000206B01004466FF1F2466FF1F6566FF1FB5
:1006600038B590F924506B1C1BD00E4B0E4953F833
:1006700025400E4BEDB24FF0FF320D701A6084B181
:10068000AD0002E02C4464685CB194F82530002B86
:10069000F8D0236820462C441B6898476468002CD7
:1006A000F3D138BD2466FF1F6466FF1FF042FF1FB1
:1006B000704700BF90F92410104B03604B1C06D00C
:1006C000F0B40F4E56F82130984201D0F0BC70477C
:1006D0000C4F57F8213033B18D0000245A1953685C
:1006E0005460002BFAD1084C23780022013B237080
:1006F00047F8212046F82120E8E700BF206B0100E1
:100700004466FF1F2466FF1F6566FF1F90F92410D3
:10071000104B03604B1C06D0F0B40F4E56F821303E
:10072000984201D0F0BC70470C4F57F8213033B1DC
:100730008D0000245A1953685460002BFAD1084CDC
:1007400023780022013B237047F8212046F821201E
:10075000E8E700BF206B01004466FF1F2466FF1F0F
:100760006566FF1F10B504460C300DF029FA2046CF
:1007700010BD00BF544A554B102111801B781B0738
:100780004AD5F0B55248534D534E544C32782F78D9
:10079000037894F800C0DFF868E18B4043EA072350
:1007A00013434F4FFF22327043EA0C632A700270EA
:1007B00080208EF80020227038706871D807494A6E
:1007C00023D51A23D36048494848DFF838C1DFF8F9
:1007D00038E1474F474E484D484C00238CF80030D5
:1007E00053709370D370137153719371D3711361FC
:1007F0008EF800300B700370107A3B7013723370F8
:100800002B70237013708871F0BD1F0705D4DE06AE
:1008100006D50423D360D6E770472123D360D2E7FF
:100820009D0604D45C0604D51623D360CBE7D160C3
:10083000C9E7180604D4990705D53C23D360C2E75D
:100840000923D360BFE75F0702D53E23D360BAE731
:10085000DE0502D50A23D360B5E79D0502D50D2339
:10086000D360B0E75C0502D50B23D360ABE7180576
:1008700002D51E23D360A6E7D90402D50223D36094
:10088000A1E79F0402D50723D3609CE75E0402D54D
:100890000623D36097E71D0402D51523D36092E7A2
:1008A000DC0102D52423D3608DE7980102D52223F1
:1008B000D36088E7D90002D52523D36083E79B0066
:1008C00044BF2323D3607EE70020054002D00740C9
:1008D0000BC007400AC0074009C007400DC00740D1
:1008E0000EC007403C6CFF1F02C0074003C007401A
:1008F00004C0074005C0074006C0074007C00740C6
:100900000CC0074000C0074001C00740002976D056
:100910002DE9F04F0C469100631883B05D68002DFF
:1009200057D06B185E68002E50D073185F68002F88
:1009300049D07B18D3F80480B8F1000F3CD008EB05
:100940000103D3F80490B9F1000F32D009EB010391
:10095000D3F804A0BAF1000F27D00AEB0103D3F8B3
:1009600004B0BBF1000F18D00BEB01035B6863B15F
:10097000194401934968FFF7C9FF019B93F82520AB
:100980001AB11A681846536898479BF8253023B166
:10099000DBF8003058465B6898479AF8253023B159
:1009A000DAF8003050465B68984799F82530002BFC
:1009B00035D198F8253063BB97F825301BB13B68DB
:1009C00038465B68984796F82530CBB995F82530BE
:1009D00063B994F8253013B903B0BDE8F08F2368EC
:1009E0005B68204603B0BDE8F04F18472B682846E7
:1009F0005B68984794F82530002BEDD0EFE77047FF
:100A0000336830465B68984795F82530002BE0D076
:100A1000ECE7D8F8003040465B689847CCE7D9F857
:100A2000003048465B689847C3E700BF90F9242030
:100A3000531C26D01B4B2DE9F04153F82240D2B273
:100A4000ECB19300E1184D68B5B1E9184E6866B194
:100A5000F1184F6837B13B445968FFF757FF97F8D3
:100A60002530A3B996F8253063B995F825301BB128
:100A70002B6828465B68984794F8253063B9BDE831
:100A8000F0817047336830465B689847EDE73B6814
:100A900038465B689847E5E7236820465B68BDE811
:100AA000F04118472466FF1F2DE9F04143F2D400BE
:100AB0000EF012FC3F4CDFF82C813F4E3F4D404F73
:100AC00049F27C200EF0EAFA02F0D4FE02231A4624
:100AD0001946204609F044FD02231A4620461021FB
:100AE00009F03EFD02231A462046152109F038FD83
:100AF000012103200EF044FA002103200EF00EFA2B
:100B000000210F200EF03CFA40464FF4FA710AF033
:100B1000DBFC03F049FB02F0C5FF03F09FF833460E
:100B20002A4653F8041B42F8041B93E803000432DE
:100B3000244B22F8021B090C00241170142296F891
:100B40000BE03C7068607C7006F10C01BC70DA71DF
:100B5000FC70012205F10C00032785F80BE0F4611D
:100B60001C705C709C709C711C725C725C731F6169
:100B70001A715A71DA721A73134F0DF029F8134A69
:100B8000134BF6691349144814601C60EE613C6015
:100B90000DF070F8114912480DF06CF803F018FFD1
:100BA00000F034FE40464FF4FA71BDE8F0410AF01F
:100BB0008BBC00BF8055FF1F2057FF1F4057FF1FF2
:100BC0002058FF1FE057FF1F8459FF1F8859FF1F40
:100BD0006C59FF1F307101007059FF1F2C6B010011
:100BE0002458FF1F8C66FF1F2DE9F04FA04DA14C2C
:100BF000A14FDFF8DC82A14E97B00021A0480AF097
:100C000063FCA04809F09AF89F4809F097F89F48BC
:100C100009F094F89B4809F0C9F808B102232B7039
:100C2000994809F0C3F808B110232B70974809F0D0
:100C3000BDF8002800F0288215232B702621944847
:100C4000DFF830920FF01EFEE17892480CF0F0FDD4
:100C500090480CF045FEE378002B40F021830223FE
:100C600089F8033000232B702378013B072B28D809
:100C7000DFE813F0F4010502F80127002700270040
:100C8000BD010800844B7E4819780AF007FC834BAD
:100C90007B4819780AF002FC814912A80CF0AAFEE0
:100CA00012A803F0E7FD12A80CF08AFF03F080F908
:100CB0007C4802F0A3FE00232370E378052B00F0AC
:100CC000A98194F80190DFF8ACA15FFA89F9B9F134
:100CD000020F00F00F82B9F1030F00F00682B9F1A4
:100CE000010F00F0DA81E378023B052B1CD8DFE826
:100CF00013F098011B00F10075016901060098F8D6
:100D000000105F480AF0CAFB00F0A4FD64215C48B3
:100D10000AF0DAFBA378002B00F0B88206216248C3
:100D200002F020FE0023E370A378DFF84891DBB2E5
:100D3000032B00F0E580062B1AD199F80330052B20
:100D400000F0198200F082FD574802F057FE0023A0
:100D500089F80330554A5649564800231360564ACD
:100D6000A37013600CF086FF544955480CF082FFC5
:100D70000EF038FD002840F0D7800FF059FD002814
:100D800040F0F18062783B4B002A40F01881DA781D
:100D9000002A40F014819A78002A40F010811A78D5
:100DA000042A00F0BB810123337023785FFA83F9B2
:100DB000B9F1030F7FF421AFD7F800A009F0BCFF11
:100DC000C0EB0A0A09F0B8FF04A909F093FD06A9CF
:100DD000386809F08FFD08A9504609F08BFD9DF891
:100DE00016109DF810009DF811E003901E399DF833
:100DF00012009DF815309DF814200091CDF808E000
:100E00000190304923480CF083FD9DF820109DF897
:100E1000213000919DF822202B491E480CF078FDCE
:100E20003378002B40F0E4819DF819309DF81A10BA
:100E30009DF81820C3EB03139B004FF4616000FB87
:100E400001339918214B4A1E9A4240F23582FF2005
:100E500004232370E378104A052B10607FF4CDAE95
:100E60001A2000F0F9FC152000F0F6FCC5E600BFE2
:100E70003C5AFF1F2058FF1F4057FF1FF457FF1F0A
:100E80008C66FF1FBC59FF1FAC59FF1F2C5AFF1F58
:100E9000806B0100004BFF1FEC62FF1FE862FF1F29
:100EA0004C57FF1F145AFF1FFC59FF1F8459FF1F87
:100EB000307101007059FF1F8859FF1F2C6B010012
:100EC0002458FF1F0C6C01003C6C01007F51010095
:100ED000F062FF1F98F80010B648DFF8EC920AF0B5
:100EE000DDFAA378B448042B0CBF0121072102F0DE
:100EF00039FD0523E370A378DBB2032B7FF41BAF2E
:100F0000042389F8023099F80330AB48052B0CBF55
:100F10000121062102F026FD142000F09DFC0EF0B8
:100F200061FC00283FF429AF78230D22A3490EA8C5
:100F30000CF0FCFC0EA912A80CF05CFD12A801F04C
:100F4000DDF8814612A80CF03BFE484600F084FC18
:100F5000002800F026810EA80CF032FE0FF068FC8D
:100F600000283FF40FAF78230A2295490AA80CF015
:100F7000DDFC0C9B0022013B0AA90EA80DF07EF9B6
:100F80000EA912A80CF036FD0D2112A80DF040F8A4
:100F900001468A480CF026FC12A80CF011FE0EA89F
:100FA0000CF00EFE0A9A874985480CF0B1FC0AA89D
:100FB0000CF006FE6278844B002A3FF4E8AE002372
:100FC0003370F2E6A37880498048042B4FF000028A
:100FD0000CBF022307230260CB70A5E6A378042B85
:100FE0007FF4A2AE0121744802F0BCFC9CE6012013
:100FF00002F0CEFE02237649237012A80CF0FAFC10
:1010000012A802F049FF12A80CF0DAFDE378052BD4
:101010007FF457AE1A2000F01FFC152000F01CFCD6
:101020004FE6A378042B00F04F8100F00DFC4FF445
:10103000FA700DF0E1FF02215F4802F093FC0123FA
:101040000093644A5B484FF461610AF0A9FAC8F85A
:10105000000000F0FDFB0323E37065E600230120A0
:10106000FB61C5E75A4912A80CF0C4FC12A803F0B2
:1010700001FC12A80CF0A4FD02F058FF21E603F0D9
:10108000C3FB03F03DF81CE62B78022B5ED0102B3F
:1010900047D0152B7FF4E8ADD0E59AF802209AF8F6
:1010A00003309AF800009AF801108DE803004A49CD
:1010B00043480CF02DFC4946484802F053FC02F02E
:1010C000B7FF03238AF801309AF80230042B00F0AE
:1010D0001081E378052B7FF406AE192000F0BCFBED
:1010E000322134480AF0F0F9FDE502F0DBFF03F0AD
:1010F00007F8F8E502F0D0FF384802F07FFC3848E6
:1011000002F07CFC9AF80230042B00F0EA80E378CD
:10111000052B00F0DE8000236370E4E503221A70E3
:1011200041E624212F48DFF8A0900FF0ABFB617857
:1011300023480CF07DFB22480CF0D2FB6378002B97
:1011400040F0AA80012389F801308BE5232126484D
:10115000DFF874900FF096FB217819480CF068FBCB
:1011600017480CF0BDFB2378002B40F09D80012335
:1011700089F8003076E5072000F06EFB64210D4809
:101180000AF0A2F9082000F067FB642109480AF080
:101190009BF90721084802F0E5FB142000F05CFBF6
:1011A000D8E5172111480FF06DFB05480CF098FBAE
:1011B000D1E600BF8C66FF1FFC59FF1FD44AFF1FFA
:1011C000004BFF1FF46B01002058FF1F6C59FF1FDD
:1011D0004C57FF1F9D4A0000A86B0100E459FF1FF8
:1011E000145AFF1F586B0100346B0100DC6B0100C7
:1011F00017219E480FF046FB9D480CF071FB9D4B5C
:101200009C4A93F8263043BB92F92400431C00F01B
:10121000E480994B984A93F82630002B78D0974B6E
:1012200053F820305BB1934218BF820003D114E021
:1012300091498B4211D013445B68002BF8D1C0B2A6
:101240008E4B53F8203081005A185368002BFBD185
:1012500088480144884850604B609DF820309DF8D4
:1012600021209DF82210844808F09CFE062323705C
:10127000E378052B7FF4C1AC1A2000F0EDFA1520BD
:1012800000F0EAFA64200DF0B7FEB6E400F0DEFAF2
:101290007B4802F0B3FB45E5022389F80130E1E425
:1012A000072389F80330DDE4724B93F826100029F8
:1012B0006CD008232370D5E4CDF800900123714A47
:1012C00071480AF06DF9C3E506216D4802F04AFB4A
:1012D000BFE6192000F0C0FA32216B480AF0F4F89A
:1012E00019E70C2000F0B8FA322167480AF0ECF850
:1012F0000DE70B2000F0B0FA322163480AF0E4F861
:10130000112000F0A9FA32215F480AF0DDF8E0E68A
:1013100092F924E0594A52F82E1000299DD0C0B20B
:101320009C46544B820003EB0209544B53F820B007
:101330004FEA8E0EBBF1000F25D0DA4600E09A4648
:101340000AEB02035B68002BF9D1594510D0934496
:10135000DBF804303BB1994203EB020B08D0DBF819
:101360000430002BF7D19244CAF80410C9F804C025
:101370007144496800293FF470AF404B53F820B0E6
:10138000BBF1000FD9D143F82010EFE793F924E027
:10139000BEF1FF3F8DD0384B374A93F826302BB340
:1013A000364B53F82E30002B83D093424FEA8E00F9
:1013B00054D0844603EB0C0201315368C9B2002BB0
:1013C0003FF477AF2C488342F4D16046002945D0E2
:1013D000294B1844436853606BE72C4B2B49187812
:1013E000431C40B20B7082F8240012E792F924C02B
:1013F000224B53F82C1000293FF45BAF4FEA8C0CC2
:101400004FEA8E001D4B53F82E306BB199421AD023
:10141000002201E099420CD003EB00090132D9F817
:101420000430D2B2002BF5D1614449680029E9D1DA
:101430003FE74AB10B1861445A68C9F8042049686B
:101440000029DFD135E70B46614403440B4A496864
:101450005B6842F82E300029D4D12AE7064B074AB0
:101460001844436842F82E3023E700BF546C010053
:10147000004BFF1FF857FF1FA057FF1F2466FF1FD9
:10148000FC59FF1F254B00008C66FF1F6566FF1F80
:101490002DE9F0414E4C4F4B4F4A504923600025F7
:1014A000FF270126204684F8247084F8255084F80C
:1014B000266010F053FC4A4BDFF8708183F82470EB
:1014C00083F82550444A47495D6318469D6383F875
:1014D0003C5083F82660C3F8008010F03FFC424B7C
:1014E0003D4A83F8247083F825503E4983F82660EE
:1014F00018465D639D6383F83C50C3F8008010F08C
:101500002DFC3A4B3A4E1A7886F82550062A86F872
:10151000265098BF1D70374D86F824702878364FB6
:10152000364957F820203160002A36D0A24231D007
:101530001346810001E0A3422CD00B445B68002BD2
:10154000F9D100E01A460A445368002BFAD15460DE
:101550002B7886F8243006EB8306002201332B70AB
:1015600072601D4A2649224810F0F8FB00212548E8
:101570000CF014FA184A2449244810F0EFFB00211B
:1015800023480CF00BFA144A1F492248BDE8F041E9
:1015900010F0E4BB01302870E3E730B12B781E4A2D
:1015A00047F8234042F82360D2E71C481C4A0368EE
:1015B0001C4943F080630360136823F08043136089
:1015C00015200DF049FB184B4FF400121A60E5E7A7
:1015D0008055FF1FC47501003049FF1FB50600008C
:1015E000A057FF1F0D0700006057FF1FF442FF1FA9
:1015F000F857FF1F6566FF1F2466FF1F206B010061
:10160000090600002C57FF1F650700002057FF1F29
:101610004C57FF1F4057FF1F4466FF1F04700440D4
:10162000007004406D04000000E100E0B0750100AE
:1016300038B5094CA4F59C75343C04F120000CF03D
:10164000BFFA04F110000CF0BBFA20460CF0B8FA17
:10165000AC42F1D138BD00BF6C59FF1F00B589B055
:10166000124968460CF09AF9104904A80CF096F952
:101670000F4904A80CF0FEFA04A80C490CF02CFD4C
:1016800068B104A90B480CF0ADF804A80CF098FA66
:1016900068460CF095FA012009B05DF804FB049A45
:1016A000054906480CF034F9EBE700BF3071010042
:1016B0006C6C0100D44AFF1F7C6C0100004BFF1FC3
:1016C00000B589B0124968460CF068F9104904A8C1
:1016D0000CF064F90F4904A80CF0CCFA04A80C49EA
:1016E0000CF0FAFC68B104A90B480CF07BF804A8D4
:1016F0000CF066FA68460CF063FA012009B05DF858
:1017000004FB049A054906480CF002F9EBE700BF18
:10171000307101008C6C0100D44AFF1F7C6C010009
:10172000004BFF1F00B589B0154968460CF036F92B
:10173000134904A80CF032F9162112480FF0A2F850
:1017400011480CF0CDF8114904A80CF093FA04A844
:101750000B490CF0C1FC68B104A90D480CF042F82B
:1017600004A80CF02DFA68460CF02AFA012009B002
:101770005DF804FB049A074903480CF0C9F8EBE74D
:1017800030710100A06C0100004BFF1FB86C01001C
:10179000D44AFF1F7C6C010000B589B0154968462A
:1017A0000CF0FCF8134904A80CF0F8F817211248C3
:1017B0000FF068F811480CF093F8114904A80CF0E8
:1017C00059FA04A80B490CF087FC68B104A90D482C
:1017D0000CF008F804A80CF0F3F968460CF0F0F9E6
:1017E000012009B05DF804FB049A074903480CF096
:1017F0008FF8EBE730710100C46C0100004BFF1F54
:10180000DC6C0100D44AFF1F7C6C010010B5012183
:101810000C4C1E200DF0B4FB01211E200DF07EFBB0
:1018200020460A2109F050FE00211E200DF076FB13
:1018300020461E2109F048FE01211E20BDE810406F
:101840000DF06CBB8C66FF1FFFF76CBFFFF7A4BFEA
:10185000FFF704BFFFF734BF2DE9F0419CB0044609
:10186000A04968460CF09AF804A89E490CF096F836
:10187000202C00F2C383DFE814F04A002503200384
:101880001403080362032A0370030203DF028C02BD
:101890007C02650261025D0251024C0216020602E0
:1018A000F601D00136022602C0017B015901210058
:1018B0002401CE00A0009000800064008A4918A88E
:1018C0000CF06CF8894B0A22196814A80CF0BEF8C9
:1018D00014A918A80CF018FB014604A80CF078F91C
:1018E00014A80CF06DF918A80CF06AF9804B1A785E
:1018F000022A00F06B831A78042A00F062831B78B6
:10190000062B00F05E837B4904A80CF025FA75498C
:1019100004A80CF0E1FB70B104A977480BF062FF5A
:10192000012404A80CF04CF968460CF049F9204653
:101930001CB0BDE8F081049A704971480BF0E8FFD3
:10194000EAE7694918A80CF029F8684B0A221968D7
:1019500014A80CF07BF814A918A80CF0D5FA694962
:101960000CF012FB014604A80CF032F914A80CF09C
:1019700027F918A80CF024F9C9E75B4918A80CF05E
:101980000DF85A4B0A22196814A80CF05FF814A934
:1019900018A80CF0B9FA5C49E2E7534918A80BF013
:1019A000FDFF524B0A22196814A80CF04FF814A935
:1019B00018A80CF0A9FA5549D2E714A84A490BF027
:1019C000EDFF4A4B0A22196810A80CF03FF810A945
:1019D00014A80CF099FA4E490CF0D6FA4D4B044677
:1019E00093ED000A18A802210CF0ACF818A92046C3
:1019F0000CF08AFA48490CF0C7FA014604A80CF02A
:101A0000E7F818A80CF0DCF810A80CF0D9F814A826
:101A10000CF0D6F87BE7414C204609F0A3F80746C6
:101A2000E01D09F09FF83049256906460CA80BF027
:101A3000B5FF2E4B0A22196808A80CF007F808A970
:101A40000CA80CF061FA36490CF09EFA0A22044602
:101A5000394610A80CF038F810A920460CF054FABA
:101A600030490CF091FA0A220446314614A80CF0D1
:101A70002BF814A920460CF047FA2A490CF084FAF6
:101A80000A220446294618A80CF01EF818A9204678
:101A90000CF03AFA20490CF077FA014604A80CF051
:101AA00097F818A80CF08CF814A80CF089F810A876
:101AB0000CF086F808A80CF083F80CA80CF080F85D
:101AC00025E7094918A80BF069FF084B0A22196895
:101AD00014A80BF0BBFF14A918A80CF015FA1249B2
:101AE0003EE700BF30710100506D01006C59FF1FCF
:101AF0002058FF1FCC6E0100D44AFF1F7C6C0100F0
:101B0000004BFF1FA86E01008C6E0100746E010077
:101B10006C6E01002C5EFF1F006E0100E057FF1F7E
:101B2000646E0100546D0100506E010018A8A449B4
:101B30000BF034FFA34B0A22196814A80BF086FFA0
:101B400014A918A80CF0E0F9014604A80CF040F81C
:101B500014A80CF035F818A80CF032F89A4B5B7802
:101B6000032B0CBF99499A4904A80CF0F5F8CEE66E
:101B7000984F3B68002B3BD0974DDFF848820026FA
:101B800018AC294668460CF023F8944968460CF0D6
:101B9000E3F8296B68460CF069F9894920460BF097
:101BA000FDFE0A22D8F8001014A80BF04FFF14A96C
:101BB00020460CF0A9F98A490CF0E6F969460CF0C8
:101BC000A3F988490CF0E0F9014604A80CF000F8EC
:101BD00014A80BF0F5FF20460BF0F2FF04A9824891
:101BE0000BF000FE3B680136B34205F13405C8D85E
:101BF0007E4904A80CF03EF889E6714918A80BF05C
:101C0000CDFE704B0A22196814A80BF01FFF14A90F
:101C100018A80CF079F97649A2E6694918A80BF0E2
:101C2000BDFE684B0A22196814A80BF00FFF14A917
:101C300018A80CF069F9014604A80BF0C9FF14A814
:101C40000BF0BEFF18A80BF0BBFF5F4B9A78042A7D
:101C500000F0C1819B78022B0CBF6649664904A83D
:101C60000CF07AF853E6654918A80BF097FE644B20
:101C70000A22196814A80BF0E9FE14A918A80CF0A0
:101C800043F960496CE65D4918A80BF087FE5C4B90
:101C90000A22196814A80BF0D9FE14A918A80CF090
:101CA00033F959495CE618A854490BF077FE544BB8
:101CB00019680A2214A80BF0C9FE14A918A80CF080
:101CC00023F948494CE63E4918A80BF067FE3D4B06
:101CD0000A22196814A80BF0B9FE14A918A80CF070
:101CE00013F94A493CE6364918A80BF057FE354B24
:101CF0000A22196814A80BF0A9FE14A918A80CF060
:101D000003F943490CF040F942490CF0FDF835491C
:101D100026E6414904A80BF0ADFFF8E512213F4843
:101D20000EF0B0FD3E480BF0DBFD3E4904A80BF081
:101D3000A1FFECE5244B08221A70E8E5224B0122B2
:101D40001A70E4E5204B02225A709B78042B7FF432
:101D5000DEAD354918A80BF021FE294B0A2219687F
:101D600014A80BF073FE14A918A80CF0CDF82F4995
:101D7000F6E52D4918A80BF011FE214B0A2219682F
:101D800014A80BF063FE14A918A80CF0BDF828499C
:101D9000E6E50D4B02225A709B78042B7FF4B7AD19
:101DA000214918A80BF0FAFD154B0A22196814A84E
:101DB0000BF04CFE14A918A80CF0A6F81D49CFE5AD
:101DC000506D01006C59FF1F2058FF1F2C6E010041
:101DD000386E01008059FF1F3458FF1F546D0100F9
:101DE000246E0100006E0100D44AFF1F3071010013
:101DF000186E0100EC6D0100F86D0100CC6D010062
:101E00008459FF1FD46D0100DC6D01000C6E0100D0
:101E1000046E01001C5EFF1FC46D0100A86D01006F
:101E2000004BFF1FBC6D0100886D0100A06D01001B
:101E3000986D0100906D0100714C002604F59C75B1
:101E4000704920460BF016FF04F120006D490BF09D
:101E500011FF343444F8046CA5424FF00003EFD175
:101E6000694A6849694813600BF004FF6549684690
:101E70000BF000FF664904A80BF0FCFE47E518A82C
:101E800064490BF08BFD644B12E7162163480EF09A
:101E9000F9FC63480BF024FD624904A80BF0EAFE4C
:101EA00035E5172160480EF0EDFC5D480BF018FD9C
:101EB0005E4904A80BF0DEFE29E55D4904A80BF09D
:101EC000D9FE24E55B4904A80BF0D4FE1FE518AC4D
:101ED00020464E494A4F0BF08DFD3E4600253046C8
:101EE00021460CF00FF9343600283CD10135062D7F
:101EF000F5D1152150480EF0C5FC49480BF0F0FC17
:101F000020460BF05DFE4D4920460BF047FD4C4B43
:101F10000A22196814A80BF099FD14A920460BF0A9
:101F2000F3FF48490CF030F8014604A80BF050FECE
:101F300014A80BF045FE20460BF042FEE7E44249B0
:101F400018A80BF02BFD314914A80BF053FD14A970
:101F500018A80BF0D9FF3D4902E518A82D490BF050
:101F60001DFD3B4BA4E615213A48DFF80481274EBE
:101F70000EF088FC2A480BF0B3FC342101FB0571FC
:101F8000103140460BF024FE20460BF019FED8F825
:101F900000303268304922480BF0BAFC2F49204605
:101FA0000BF0FCFC314620460BF0AEFF2C490BF049
:101FB000EBFF014604A80BF00BFE20460BF000FEE1
:101FC000A5E4284904A80BF0C7FEA0E4264904A80C
:101FD0000BF0C2FE9BE4254918A80BF0DFFC244956
:101FE00018A80BF091FF19490BF0CEFF014604A889
:101FF0000BF072FE18A80BF0E3FD88E4002490E4D7
:102000003458FF1F307101008059FF1F7059FF1FA6
:102010007C6D0100746D01008859FF1FA06C0100E8
:10202000004BFF1FB86C0100C46C0100DC6C0100A8
:102030008C6C01006C6C0100386D0100506D01006A
:102040006C59FF1F586D0100E86C0100006E010023
:102050008459FF1FF06C0100086D0100286D01001C
:10206000306D0100C06E0100446E0100E46D01009E
:102070002458FF1F2DE9F0471D4F984606468A4613
:1020800091463B460024194630461D460CF006F8A2
:10209000184930BB28460CF01FF805F1340320B96D
:1020A0000134062CEFD1124D0446314628460BF080
:1020B0008FFD342303FB04F404F11000514638442F
:1020C0000BF086FD04F12000494638440BF080FDFA
:1020D000094A13683C440133C4F830801360BDE8FA
:1020E000F087342303FB0474C4F83080BDE8F08724
:1020F0003458FF1F307101008059FF1F2DE9F04F48
:10210000D3B0044600210EA80BF048FC002112A811
:102110000BF044FC002116A80BF040FC00211AA88B
:102120000BF03CFC00211EA80BF038FC002122A87B
:102130000BF034FC002126A80BF030FC00212AA86B
:102140000BF02CFC00212EA80BF028FC002132A85B
:102150000BF024FC002136A80BF020FCA9494EA866
:102160000BF01CFC4EA920460CF008F883464EA844
:102170000BF026FD0BF10107A2494EA80BF00EFC57
:102180003A464EA920460CF00BF805464EA80BF037
:1021900017FD05F101099B494EA80BF0FFFB4A46CC
:1021A0004EA920460BF0FCFF06464EA80BF008FD9A
:1021B000731C94490C934EA80BF0F0FB721C4EA9B3
:1021C00020460BF0EDFF80464EA80BF0F9FC08F11D
:1021D00001038C4903934EA80BF0E0FB039A4EA930
:1021E00020460BF0DDFF82464EA80BF0E9FC0AF119
:1021F0000103844905934EA80BF0D0FB4EA9059A24
:1022000020460BF0CDFF4EAA029010460BF0D8FCF2
:10221000029B7C4901334EA806930BF0BFFB4EA9ED
:10222000069A20460BF0BCFF4EAA049010460BF015
:10223000C7FC049B734901334EA808930BF0AEFB17
:102240004EA9089A20460BF0ABFF4EAA0790104605
:102250000BF0B6FC079B6B4901334EA80A930BF0B9
:102260009DFB4EA90A9A20460BF09AFF4EAA0B90AE
:1022700010460BF0A5FC0B9B624901334EA8099355
:102280000BF08CFB099A4EA920460BF089FF0D90AC
:102290004EA80BF095FC22685B495C480BF038FBBC
:1022A000BBF1FF3F00F0B48000225B4621464EA800
:1022B0000BF0E4FF4EA90EA80BF0BAFC4EA80BF0F1
:1022C0007FFC6A1C00F0DD802B463A4621464EA872
:1022D0000BF0D4FF4EA912A80BF0AAFC4EA80BF0ED
:1022E0006FFC731C00F0308133464A4621464EA8ED
:1022F0000BF0C4FF4EA916A80BF09AFC4EA80BF0E9
:102300005FFCB8F1FF3F00F0FB8143460C9A214689
:102310004EA80BF0B3FF4EA91AA80BF089FC4EA8EB
:102320000BF04EFCBAF1FF3F00F03E815346039A9A
:1023300021464EA80BF0A2FF4EA91EA80BF078FC78
:102340004EA80BF03DFC029B059A5F1C21464EA84F
:1023500000F0F0820BF092FF4EA922A80BF068FC6F
:102360004EA80BF02DFC049B069A5E1C21464EA83D
:1023700000F06D820BF082FF4EA926A80BF058FCEE
:102380004EA80BF01DFC079B089A5D1C21464EA829
:1023900000F042820BF072FF4EA92AA80BF048FC15
:1023A0004EA80BF00DFC0B9D0A9A2B4621464EA819
:1023B0000BF064FF4EA92EA80BF03AFC4EA80BF0D0
:1023C000FFFB6B1C099A00F0D5810D9D21462B4621
:1023D0004EA80BF053FF4EA932A80BF029FC4EA8D3
:1023E0000BF0EEFB6B1C17D1214600224EA80BF020
:1023F000E9FE4EA936A80BF01BFC4EA80BF0E0FB43
:10240000002419E0546D0100D86E0100004BFF1F3D
:1024100021460EA80BF0DCFBA7494EA80BF0BEFA34
:102420004EA90EA80BF06EFE04464EA80BF0C8FB9A
:10243000002C00F00E83002436A80BF0C1FB32A85C
:102440000BF0BEFB2EA80BF0BBFB2AA80BF0B8FBD1
:1024500026A80BF0B5FB22A80BF0B2FB1EA80BF0D0
:10246000AFFB1AA80BF0ACFB16A80BF0A9FB12A847
:102470000BF0A6FB0EA80BF0A3FB204653B0BDE863
:10248000F08F3A4621464EA80BF09CFE4EA912A8AA
:102490000BF0CEFB4EA80BF093FB88494EA80BF037
:1024A0007DFA4EA90EA80BF02DFE04464EA80BF0A7
:1024B00087FB002CBFD182494EA80BF06FFA4EA9C2
:1024C0000EA80BF01FFE04464EA80BF079FB002C63
:1024D000B1D17C494EA80BF061FA4EA90EA80BF0C1
:1024E00011FE04464EA80BF06BFB002CA3D17649DD
:1024F0004EA80BF053FA4EA90EA80BF003FE0446AB
:102500004EA80BF05DFB002C95D170494EA80BF046
:1025100045FA4EA90EA80BF0F5FD04464EA80BF0A7
:102520004FFB002C87D16A494EA80BF037FA4EA911
:102530000EA80BF0E7FD04464EA80BF041FB002C63
:1025400000F0AC840D2477E74A4621464EA80BF0F4
:1025500039FE4EA916A80BF06BFB4EA80BF030FB12
:102560005C494EA80BF01AFA4EA90EA80BF0CAFD52
:1025700004464EA80BF024FB002C00F09F8216A806
:102580000BF0DEFE07EE900A9FED537A534B544A50
:10259000DB78F8EEE76A052BC6EE877AC2ED007AA3
:1025A0007FF449AF1D2447E7039A21464EA80BF05C
:1025B00009FE4EA91EA80BF03BFB4EA80BF000FB3A
:1025C00048494EA80BF0EAF94EA90EA80BF09AFD67
:1025D00004464EA80BF0F4FA002C7FF42CAF4249CD
:1025E0004EA80BF0DBF94EA90EA80BF08BFD0446AC
:1025F0004EA80BF0E5FA002C7FF41DAF3B494EA826
:102600000BF0CCF94EA90EA80BF07CFD04464EA8A9
:102610000BF0D6FA002C7FF40EAF35494EA80BF024
:10262000BDF94EA90EA80BF06DFD04464EA80BF0A7
:10263000C7FA002C7FF4FFAE2E494EA80BF0AEF97E
:102640004EA90EA80BF05EFD04464EA80BF0B8FA9A
:10265000002C7FF4F0AE28494EA80BF09FF94EA94C
:102660000EA80BF04FFD04464EA80BF0A9FA002C63
:102670007FF4E1AE21494EA80BF090F94EA90EA8C7
:102680000BF040FD04464EA80BF09AFA002C00F027
:10269000B783149A12A9531E4EA8023A0BF0EEFD0E
:1026A0004EA80BF04DFE04464EA80BF089FA002C04
:1026B0007FF4C1AE1424BFE6F8710100E86E01009A
:1026C0004C6F0100606F01006C6F0100786F0100BA
:1026D000846F0100FC6E01000000F0422058FF1FD3
:1026E0002C5EFF1F086F0100B4700100C470010070
:1026F000D8700100E8700100F47001000071010061
:102700000C9A21464EA80BF05DFD4EA91AA80BF0BD
:102710008FFA4EA80BF054FA76494EA80BF03EF90A
:102720004EA90EA80BF0EEFC04464EA80BF048FA9A
:10273000002C7FF480AE70494EA80BF02FF94EA903
:102740000EA80BF0DFFC05464EA80BF039FA002D61
:1027500000F02A8212A80BF0F3FD684B1B68984228
:1027600040F04482664B9A78002A3FF464AE062219
:102770009A7061E621464EA80BF024FD4EA936A8BA
:102780000BF056FA4EA80BF01BFA5E494EA80BF060
:1027900005F94EA90EA80BF0B5FC04464EA80BF0A7
:1027A0000FFA002C3FF447AE0E2157480EF06AF89E
:1027B00056480BF095F856494EA80BF0EFF84EA985
:1027C0001AA80BF09FFC04464EA80BF0F9F9002C58
:1027D0007AD150494EA80BF0E1F84EA91AA80BF097
:1027E00091FC05464EA80BF0EBF9002D3FF423AE0B
:1027F00012A80BF0A5FD484E484D30601EA9284692
:102800000BF0E6F933682A68454940480BF080F838
:102810003B4B04229A700FE60BF0D4FC4EA936A86D
:102820000BF006FA4EA80BF0CBF936494EA80BF088
:10283000B5F84EA90EA80BF065FC04464EA80BF0A7
:10284000BFF9002C3FF4F7AD0E21364828E00BF01D
:10285000B9FC4EA926A80BF0EBF94EA80BF0B0F985
:1028600031494EA80BF09AF84EA90EA80BF04AFC7D
:1028700004464EA80BF0A4F9002C40F0FB8021493F
:102880004EA80BF08BF84EA90EA80BF03BFC0446AB
:102890004EA80BF095F9002C3FF4CDAD23480E2146
:1028A0000DF0F0FF19480BF01BF819494EA80BF07A
:1028B00075F84EA91AA80BF025FC04464EA80BF09B
:1028C0007FF9002C00F04C8112A80BF039FD134C5D
:1028D0000A4D1EA9286020460BF07AF922682B6861
:1028E00013490A480BF014F8054B04229A7005248A
:1028F000A2E500BF046F0100F86F01008459FF1FBB
:102900002058FF1F246F0100E8710100004BFF1FDA
:102910000C7001004C7001008859FF1F7059FF1F97
:10292000AC710100D87101001C6F0100C871010079
:10293000907101000BF046FC4EA922A80BF078F92B
:102940004EA80BF03DF9B4494EA80BF027F84EA95C
:102950000EA80BF0D7FB04464EA80BF031F9002C63
:1029600000F0EE8012A93AA80BF044F816A94EA880
:102970000BF040F8A949AA4F4EA80BF005FB1AA985
:102980000BF0C2FA01463EA80BF034F84EA80BF04B
:1029900017F91EA942A80BF02DF80323012222A942
:1029A0004EA80BF06BFC4EA80BF0CAFC06464EA8D6
:1029B0000BF006F93AA946A80BF01CF83EA94AA864
:1029C0000BF018F842A94EA80BF014F800243B466F
:1029D000194646A81D460BF061FB9249002840F0BD
:1029E000158128460BF078FB05F1340320B901343A
:1029F000062CEDD18A4D044646A928460BF0E8F88E
:102A0000342303FB04F404F110004AA938440BF00A
:102A1000DFF804F1200038444EA90BF0D9F8824ABF
:102A200013683C440133266313604EA80BF0C8F8CA
:102A30004AA80BF0C5F846A80BF0C2F842A80BF064
:102A4000BFF83EA80BF0BCF83AA80BF0B9F8182470
:102A5000F2E476494EA80AF0A1FF4EA90EA80BF0A9
:102A600051FB04464EA80BF0ABF8002C00F0FC80A4
:102A70001624E1E412A80BF063FC6D4B1B6898422E
:102A80007FF4D9AC6B494EA80AF088FF4EA91AA86A
:102A90000BF038FB04464EA80BF092F8002C3FF4E4
:102AA000CAAC1EA80BF04CFC054622A80BF048FC53
:102AB00085420446C0F07F811F24BDE45E494EA8D4
:102AC0000AF06CFF4EA90EA80BF01CFB04464EA8A2
:102AD0000BF076F8002C7FF4AEAC58494EA80AF003
:102AE0005DFF4EA90EA80BF00DFB04464EA80BF09F
:102AF00067F8002C7FF49FAC51494EA80AF04EFFB6
:102B00004EA90EA80BF0FEFA04464EA80BF058F89A
:102B1000002C7FF490AC4B494EA80AF03FFF4EA921
:102B20000EA80BF0EFFA04464EA80BF049F8002C63
:102B300000F0518116A944480BF04AF814247BE4B4
:102B400042494EA80AF02AFF4EA90EA80BF0DAFA65
:102B500004464EA80BF034F8002C3FF46CACA4E60D
:102B60003B494EA80AF01AFF4EA91AA80BF0CAFA60
:102B700004464EA80BF024F8002C3FF45CAC12A8DD
:102B80000BF0DEFB334C344D1EA9286020460BF0C1
:102B90001FF822682B68314931480AF0B9FE314BE1
:102BA00004229A70002447E426494EA80AF0F6FE53
:102BB0004EA90EA80BF0A6FA04464EA80BF000F89A
:102BC000002C6DD016A94EA80AF014FF13494EA888
:102BD0000BF0DAF91AA90BF097F901461A480AF036
:102BE000F7FF4EA80AF0ECFF142425E412A80BF01E
:102BF000A7FB0F4B1B6898427FF41DAC194BDA788A
:102C0000002A3FF418AC0622DA7015E4342303FBE3
:102C10000474266309E700BF146F0100546D0100BE
:102C20003458FF1F307101008059FF1F2C6F0100C5
:102C30006C59FF1F7C710100C06F0100CC6F010057
:102C4000D86F0100E46F01002458FF1F246F0100BA
:102C50004C7001007059FF1F8859FF1FAC710100B3
:102C6000004BFF1F2058FF1FAB494EA80AF096FEED
:102C70004EA90EA80BF046FA04464EA80AF0A0FF93
:102C8000002C7FF4D8ABA5494EA80AF087FE4EA9C8
:102C90000EA80BF037FA4EA80AF092FFFFF7CCBB54
:102CA0009F494EA80AF07AFE4EA90EA80BF02AFA08
:102CB00005464EA80AF084FF002D35D099494EA84C
:102CC0000AF06CFE4EA916A80BF01CFA05464EA899
:102CD0000AF076FF002D4FD193494EA80AF05EFE10
:102CE0004EA916A80BF00EFA04464EA80AF068FF8B
:102CF000002C72D18D494EA80AF050FE4EA916A89C
:102D00000BF000FA04464EA80AF05AFF002C3FF4DC
:102D100092AB12A80BF014FB854A864B106004227C
:102D2000DA700024FFF788BB83494EA80AF036FE0C
:102D30004EA90EA80BF0E6F904464EA80AF040FF93
:102D4000002C2ED012A80BF0FBFA794B1B6898428E
:102D50007FF471AB79494EA80AF020FE4EA91AA85B
:102D60000BF0D0F904464EA80AF02AFF002C00F020
:102D700084800924FFF760BB12A80BF0E1FA704DC4
:102D8000704E28601AA930460AF022FF33682A687C
:102D90006D496E480AF0BCFD664B03229A70FFF73E
:102DA0004BBB16AB00930EAA12AB694967480AF0F9
:102DB000AFFDFFF741BB674E2846314607F09AFD4D
:102DC0002046F11D07F096FD26A80BF0B9FA1B244A
:102DD0003061FFF731BB604956E712A80BF0B0FA3B
:102DE0005E4C584D20601AA928460AF0F1FE226870
:102DF0002B685B4955480AF08BFD0024FFF71CBB8C
:102E000058494EA80AF0CAFD4EA90EA80BF07AF94F
:102E100004464EA80AF0D4FE002C50D012A93AA8BD
:102E20000AF0E8FD189B3EA8013B012216A90BF011
:102E300025FA1AA942A80AF0DDFD032301221EA9E2
:102E40004EA80BF01BFA4EA80BF07AFA04464EA8D7
:102E50000AF0B6FE3AA946A80AF0CCFD3EA94AA857
:102E60000AF0C8FD42A94EA80AF0C4FD23464EAAA6
:102E70004AA946A8FFF7FEF8D7E53B494EA80AF055
:102E80008DFD4EA91AA80BF03DF905464EA80AF093
:102E900097FE002D3FF4CFAA264B68E433494EA895
:102EA0000AF07CFD4EA90EA80BF02CF904464EA8A2
:102EB0000AF086FE002C5DD00E24FFF7BDBA1E4935
:102EC0004EA80AF06BFD4EA90EA80BF01BF90446A4
:102ED0004EA80AF075FE002C3FF4ADAA12A80BF024
:102EE0002FFA134B1B6898427FF4A5AA20494EA8DD
:102EF0000AF054FD4EA91AA80BF004F904464EA896
:102F00000AF05EFE002C55D01EA90E480AF060FEA5
:102F10000624FFF791BA00BF346F0100446F01002F
:102F2000047001000C7001004C70010098700100E9
:102F30006C59FF1F2058FF1F1C6F01009C7001007F
:102F40008459FF1F7059FF1F14700100004BFF1FB1
:102F5000A8700100E057FF1FEC6F01008859FF1FA8
:102F600054700100146F0100A0700100946F010003
:102F700008710100A8494EA80AF010FD4EA90EA83C
:102F80000BF0C0F804464EA80AF01AFE002C7FF49D
:102F900052AAA2494EA80AF001FD4EA90EA80BF0B4
:102FA000B1F804464EA80AF00BFE002C7FF443AAA9
:102FB0009B4969E69B494EA80AF0F0FC4EA91AA865
:102FC0000BF0A0F805464EA80AF0FAFD85B11EA840
:102FD0000BF0B6F9944B9842054647D9032101F00E
:102FE00017FD2A46914992480AF092FCFFF724BA4D
:102FF00090494EA80AF0D2FC4EA91AA80BF082F80C
:1030000004464EA80AF0DCFD002C38D08A494EA8B0
:103010000AF0C4FC4EA91EA80BF074F804464EA892
:103020000AF0CEFD002C7FF48DAA84494EA80AF048
:10303000B5FC4EA91EA80BF065F804464EA80AF090
:10304000BFFD002C7FF438AF7D494EA80AF0A6FCE6
:103050004EA91EA80BF056F804464EA80AF0B0FD83
:10306000002C3FF4E8A91A24FFF7E6B91A217548A5
:103070000DF008FC6E480AF033FCFFF7DDB9724929
:103080004EA80AF08BFC4EA91AA80BF03BF8044698
:103090004EA80AF095FD94B167494EA80AF07EFC4F
:1030A0004EA91EA80BF02EF804464EA80AF088FD83
:1030B00054B3664B01225A700024FFF7BDB964492E
:1030C0004EA80AF06BFC4EA91AA80BF01BF8044698
:1030D0004EA80AF075FD002C3AD05C4B9B78042B6F
:1030E00018BF20247FF4A8A95A494EA80AF056FC1C
:1030F0004EA91EA80BF006F804464EA80AF060FD83
:10310000ACB11324FFF798B94C494EA80AF046FC1D
:103110004EA91EA80AF0F6FF04464EA80AF050FD7C
:10312000002C35D0494B02225A70FFF784B94A4926
:103130004EA80AF033FC4EA91EA80AF0E3FF04468D
:103140004EA80AF03DFD002C34D01224FFF774B9CC
:1031500042494EA80AF022FC4EA91AA80AF0D2FF52
:1031600004464EA80AF02CFD002C34D034494EA859
:103170000AF014FC4EA91EA80AF0C4FF04464EA88B
:103180000AF01EFD002C3FF456A91024FFF754B995
:103190002B494EA80AF002FC4EA91EA80AF0B2FF65
:1031A00004464EA80AF00CFD002C3FF444A9192453
:1031B000FFF742B922494EA80AF0F0FB4EA91EA81B
:1031C0000AF0A0FF04464EA80AF0FAFC002C7FF497
:1031D000E9A9FFF730B922494EA80AF0DFFB4EA952
:1031E0001AA80AF08FFF04464EA80AF0E9FC002C4A
:1031F00038D013494EA80AF0D1FB4EA91EA80AF0F8
:1032000081FF04464EA80AF0DBFC002C0CBF1E24F4
:103210001C24FFF711B900BFA46F0100AC6F0100BF
:10322000B86F0100107101006517545C187101003E
:10323000004BFF1F50710100547101005C710100CF
:103240006471010034710100687101002058FF1F92
:103250006C710100707101007471010078710100DE
:103260007C71010010494EA80AF098FB4EA91AA8DB
:103270000AF048FF04464EA80AF0A2FC002C3FF4D6
:10328000DAA80A494EA80AF089FB4EA91EA80AF03E
:1032900039FF04464EA80AF093FC002C3FF4CBA85B
:1032A0001524FFF7C9B800BF8471010064710100E3
:1032B00038B5164C04F59C75002120460AF06EFBCB
:1032C000002104F110000AF069FB04F12000002144
:1032D00034340AF063FBAC42EED10D4A0D490020B4
:1032E0000EF03CFD00210C480AF058FB084A0B493F
:1032F00009480EF033FD002109480AF04FFB044A4B
:1033000006490748BDE838400EF028BD3458FF1F75
:103310003049FF1F311600007059FF1FC1DB00004C
:103320002458FF1F10B5094C04F118000AF0FCF9ED
:1033300004F110000AF0F8F904F108000AF0F4F9B9
:103340002046BDE810400AF0EFB900BF8C59FF1FBE
:1033500010B5094C04F150000AF0E6F904F1380008
:103360000AF0E2F904F120000AF0DEF904F10800A5
:10337000BDE810400AF0D8B9CC59FF1FF8B5424C4F
:10338000637F072B1BD8DFE803F00D3F044F2004B9
:103390002F46217F81F001012177207EBDE8F84092
:1033A0000BF0BCBD0125394825770AF0BDF9002393
:1033B0002946207E25776377E3620BF0AFFD217FFE
:1033C000207EBDE8F8400BF0A9BDE36A2E4D5A1CE3
:1033D0000C2BE26242D8297F207E81F001012977FF
:1033E000BDE8F8400BF09ABD274B217F1B6A0029EE
:1033F0002FD00BB1264A1A6081F001012177207E7F
:10340000BDE8F8400BF08ABD00212177207EBDE8A1
:10341000F8400BF083BD1C4B217F1B6AC9B1002B08
:10342000EAD01C4A1A60E7E7E36A174D5A1C022BE0
:10343000E262D0D905F120000AF076F901220023DA
:103440001146287E2A776B77EB620BF067FD297FA8
:10345000A3E7002BD0D0104A1A60CDE70026012741
:1034600005F120000AF060F93946287E2F776E7743
:10347000EE620BF053FD3146287E6F772E770BF00E
:103480004DFD297F89E700BFCC59FF1FEC59FF1F75
:103490007FC3C901FFA2E1117F8D5B00F8B5514CDC
:1034A00094F83530072B22D8DFE803F0104E046182
:1034B00029043B5794F8341081F0010184F834104A
:1034C00094F83000BDE8F8400BF028BD01254648CF
:1034D00084F834500AF028F90023294694F8300083
:1034E00084F8345084F8353063640BF017FD94F899
:1034F000341094F83000BDE8F8400BF00FBD636C59
:10350000384D5A1C0C2B62644FD895F8341094F83F
:10351000300081F0010185F83410BDE8F8400BF06F
:10352000FDBC304B94F834109B6B002938D00BB1A4
:103530002E4A1A6081F0010184F8341094F83000AA
:10354000BDE8F8400BF0EABC002184F8341094F890
:103550003000BDE8F8400BF0E1BC224B94F8341089
:103560009B6BE9B1002BE5D0214A1A60E2E7636C5E
:103570001C4D5A1C022B6264C7D905F138000AF0B1
:10358000D3F801220023114695F8300085F8342045
:1035900085F835306B640BF0C1FC95F834108FE77B
:1035A000002BC7D0134A1A60C4E70026012705F193
:1035B00038000AF0B9F8394695F8300085F83470CB
:1035C00085F835606E640BF0A9FC314695F8300043
:1035D00085F8357085F834600BF0A0FC95F8341050
:1035E0006EE700BFCC59FF1F045AFF1F7FC3C901FC
:1035F000FFA2E1117F8D5B00F8B5514C94F84D307E
:10360000072B22D8DFE803F0104E046129043B5752
:1036100094F84C1081F0010184F84C1094F84800A3
:10362000BDE8F8400BF07ABC0125464884F84C50C0
:103630000AF07AF80023294694F8480084F84C50A0
:1036400084F84D30E3650BF069FC94F84C1094F865
:103650004800BDE8F8400BF061BCE36D384D5A1CE2
:103660000C2BE2654FD895F84C1094F8480081F087
:10367000010185F84C10BDE8F8400BF04FBC304B11
:1036800094F84C101B6D002938D00BB12E4A1A60EB
:1036900081F0010184F84C1094F84800BDE8F8402E
:1036A0000BF03CBC002184F84C1094F84800BDE8B5
:1036B000F8400BF033BC224B94F84C101B6DE9B171
:1036C000002BE5D0214A1A60E2E7E36D1C4D5A1C3D
:1036D000022BE265C7D905F150000AF025F8012256
:1036E0000023114695F8480085F84C2085F84D30A8
:1036F000EB650BF013FC95F84C108FE7002BC7D04F
:10370000134A1A60C4E70026012705F150000AF0A9
:103710000BF8394695F8480085F84C7085F84D60EF
:10372000EE650BF0FBFB314695F8480085F84D70CF
:1037300085F84C600BF0F2FB95F84C106EE700BF7B
:10374000CC59FF1F1C5AFF1F7FC3C901FFA2E11103
:103750007F8D5B00F8B5424C6379072B1BD8DFE8FF
:1037600003F00D3F044F20042F46217981F0010121
:1037700021712078BDE8F8400BF0D0BB0125394815
:10378000257109F0D1FF0023294620782571637146
:1037900063610BF0C3FB21792078BDE8F8400BF0A2
:1037A000BDBB63692E4D5A1C0C2B626142D829792E
:1037B000207881F001012971BDE8F8400BF0AEBB23
:1037C000274B21799B6800292FD00BB1264A1A601C
:1037D00081F0010121712078BDE8F8400BF09EBB1B
:1037E000002121712078BDE8F8400BF097BB1C4BFD
:1037F00021799B68C9B1002BEAD01C4A1A60E7E71F
:103800006369174D5A1C022B6261D0D905F108007B
:1038100009F08AFF01220023114628782A716B7172
:103820006B610BF07BFB2979A3E7002BD0D0104A0A
:103830001A60CDE70026012705F1080009F074FFA2
:10384000394628782F716E716E610BF067FB314637
:1038500028786F712E710BF061FB297989E700BF21
:10386000CC59FF1FD459FF1F7FC3C901FFA2E1112B
:103870007F8D5B0002212DE9F84F08460BF080FB9D
:10388000022110200BF07CFB022115202E4CDFF8CA
:10389000C8B02E4FDFF8C490DFF8C4800BF070FB87
:1038A0004FF0000A661F554621464FF0010C0020DC
:1038B00007EBC5031BF8012B44F8052C04F801CCD9
:1038C00001F8030BD3F800E01B79C4F803E0022DE4
:1038D0000B71E244C4F80F0015D0032D6146104669
:1038E00021D065451CD0C6F810800BF049FB14F8B8
:1038F000011C14F8050C0BF011FBBAF1040F21D0D8
:1039000001351834D0E7C6F84090104601210BF07D
:1039100037FB14F8011C14F8050C0BF0FFFAEFE765
:103920000B4BB362F1E70B4B96F84800B365614669
:103930000BF026FB96F84C1096F84800BDE8F84FBF
:103940000BF0ECBABDE8F88FD159FF1F8C59FF1F5F
:103950007D330000F93500003449FF1F9D3400001D
:103960005537000070B500F10806044630460D4694
:1039700009F0DAFE0023012163716361217120786F
:103980000BF0CCFA6571072D0AD8DFE805F01A2B89
:103990000F04040904043046164A216909F076FE32
:1039A00021792078BDE870400BF0B8BA2169124A3D
:1039B000304609F06BFE21792078BDE870400BF0AD
:1039C000ADBA304609F0B0FE002301212171207804
:1039D000637163610BF0A2FA21792078BDE8704031
:1039E0000BF09CBA002121712078BDE870400BF0EB
:1039F00095BA00BF7F8D5B007FC3C90110B5044637
:103A0000083009F091FE0023012163716361217187
:103A10002078BDE810400BF081BA00BF70B51422C9
:103A200002211848184E06F073F914221021174885
:103A300006F06EF914221521154806F069F9154BA8
:103A40001549002480251C6032469C601C619C61E5
:103A50001D711D731D751D7720460EF07FF90F4BEC
:103A60000F491D7383F8245083F83C5083F8545059
:103A70009C60324620461C629C631C65BDE8704019
:103A80000EF06CB9BC59FF1F3049FF1FAC59FF1F26
:103A90002C5AFF1F8C59FF1F25330000CC59FF1FE4
:103AA0005133000008B50721184803F061F90E21D1
:103AB000164803F0BDF90A21154803F0F5FA20BBBA
:103AC0001C2114480CF0DEFE134809F009FF012107
:103AD0001248FFF747FF01211148FFF743FF01217B
:103AE0001048FFF73FFFFA210F4807F0EDFC0B48A5
:103AF000FFF784FF0A48FFF781FF0A48FFF77EFFC0
:103B0000FA21094807F0E0FCDAE708BD4849FF1F41
:103B1000A463FF1F00720100004BFF1FCC59FF1F61
:103B2000E459FF1FFC59FF1F8C66FF1F30B593B08F
:103B30000546414904A809F031FF3F4908A809F0AA
:103B40002DFF28463C4909F029FF3C4B1B78002BF0
:103B500047D007F0F1F802A906F0CCFE9DF80E2040
:103B60009DF80C109DF80D3000910CAC1E3A3449B4
:103B700020460EF09FFF214604A80AF0EDF89DF8BC
:103B8000081000919DF809302E499DF80A20204622
:103B90000EF090FF214608A80AF0DEF8089B049A70
:103BA000294920460EF086FF214628460AF0D4F81F
:103BB0000499264803F094FB70B12968234803F068
:103BC0008FFB002833D108A809F0FAFF04A809F0F8
:103BD000F7FF284613B030BD04991C4803F0CEFC13
:103BE000F1E71B4B02A9186806F084FE9DF80E2031
:103BF0009DF80C109DF80D3000910CAC1E3A20463B
:103C000014490EF057FF214604A80AF0A5F89DF8C4
:103C1000081000919DF809309DF80A200E492046B1
:103C20000EF048FF214608A80AF096F8B6E7296882
:103C3000064803F0E5FDC6E730710100F462FF1F9E
:103C4000207201003072010068720100A463FF1F3E
:103C50004057FF1F4472010054720100F0B40C4B36
:103C60000C490D4A0D4F0E480E4D19604AF6444658
:103C7000022410219A60DF60012258629E61DD619A
:103C80001C84196159849A82DA82F0BC704700BFA3
:103C9000645AFF1F5249464657415645666D742087
:103CA0006461746140C40A00014803F0C7B900BFF1
:103CB000445AFF1F70B51C4D90B006460C4668462E
:103CC00003F0BCF902233268AC6208A81749243417
:103CD0006C6003F091FA10AB9DF8241053F8130DAB
:103CE000CDF80D005C689A681B7BCDF81140CDF8CB
:103CF00015200A9C9DF82C208DF819308DF80410A1
:103D00000F9B0793684600218DF80C20029403F066
:103D1000ABF929462C22684603F0F2F8684603F016
:103D2000ADF910B070BD00BF645AFF1FA463FF1F40
:103D300010B5044609F04EF9204610BD002310B41A
:103D4000114C4172026104600372C36041B11946B3
:103D500000E0026942F82310427A01339A42F8DC0B
:103D60000A4B1A680AB90CE01A465369002BFBD1BA
:103D70005061002343618380C38083725DF8044BEC
:103D800070471860F5E700BF787201005467FF1FA5
:103D900010B50121044686B03548FFF7E3FD002C3D
:103DA0003FD1344C02A8FFF7C1FE02A9324809F006
:103DB0003FFF02A809F004FF2F4902A809F01AFEEC
:103DC0002E4B2F4819785A7821719B786271002107
:103DD000A3710AF0ADFA0299294809F0BDFF2368E2
:103DE000003318BF012302A8E37209F0E9FE21792C
:103DF0006079A3793C2212FB00114FF4616202FB4F
:103E0000031149B1012300931E4A1F4807F0C8FB64
:103E10001E4B186006B010BD1C4BFF20186006B08A
:103E200010BD00F061FD0021174807F04DFB022195
:103E30000F48FFF797FD00F05FFD044600F058FDC6
:103E40008CB10221002000F0E3FD01210848FFF7BA
:103E500089FD06F071FF074C0D4902460D482260AE
:103E600009F056FD9EE704210148FFF77BFDF0E7CE
:103E7000CC59FF1F4057FF1F1C5EFF1FE057FF1F5D
:103E80004C57FF1FBD4A00008C66FF1FE862FF1FF2
:103E90007C720100004BFF1FF0B589B002681C491D
:103EA0001723684603F0A8F908AA1A4B52F8131D05
:103EB000029C9DF8040055689DF80C70079E9C605C
:103EC0009468127B1871C3F80D1018461F73DE61D9
:103ED000C3F81150C3F815405A7603F0DDF858B90D
:103EE00012210D480CF0CEFC0C4809F0F9FC0C4BEB
:103EF00008221A7009B0F0BD0A4C204602F0E8FD15
:103F0000094B0121002284F8F6101A6009B0F0BDB7
:103F1000A463FF1F445AFF1F90720100004BFF1F54
:103F20002058FF1FF060FF1F405AFF1F70B51A4C4A
:103F30001A4DE37AEB7222462B4652F8041B43F8E3
:103F4000041B92E8030004330A0C23F8021B686088
:103F500004F10C0105F10C001A7009F039FE104A49
:103F60002B68517AE669107AEE614FF4616505FBC2
:103F70000133D2793C2111FB0033134409490A482B
:103F8000236009F077FEE36908480133E361BDE887
:103F90007040FFF733BD00BF4057FF1F2057FF1F82
:103FA000E057FF1FA47201001C5EFF1FCC59FF1FCA
:103FB00070B5184E184D0024214606F10C003460EF
:103FC000B47174713471F4720AF0B2F9214605F1DA
:103FD0000C00F4612C60AC716C712C71EC720AF005
:103FE000A7F90E490E48EC6109F044FE0D4B0E484E
:103FF0001A78022A08BF01224FF0030108BF1A7085
:10400000FFF7B0FC4FF4FA710848BDE8704007F0C4
:104010005BBA00BF2057FF1F4057FF1FA47201006B
:104020001C5EFF1FF462FF1FCC59FF1F8C66FF1F31
:1040300008B5124B4FF480320F209A610AF098FABB
:1040400007EE900A9FED0E6ADFED0E5ADFED0E6A65
:104050000E4AB8EEE77ADFED0E7A27EE067A0346CF
:1040600087EE256A13600B48BDE80840E6EE267A25
:10407000FCEEE77A17EE901A01F0EEB8905AFF1FA7
:10408000CDCC4C3F00C07F4400000143405EFF1F89
:10409000EE7CFF3E305EFF1F014B00229A617047AD
:1040A000905AFF1F08B50F200AF062FA07EE900A37
:1040B0009FED0D6ADFED0D5ADFED0D6A0D4AB8EE8A
:1040C000E77ADFED0D7A27EE067A034687EE256A5A
:1040D00013600A48BDE80840E6EE267AFCEEE77A6F
:1040E00017EE901A01F0B8B8CDCC4C3F00C07F4419
:1040F00000000143405EFF1FEE7CFF3E305EFF1F6D
:1041000010B52449244A0B68106882B00093009BC4
:104110001B1A182B36D972B6204B187F00F0FF04FB
:1041200008B10020187762B664B30968019101995B
:10413000116072B647F6FF744FF40040B3F91E10D9
:10414000B3F92020DC83188462B6002982EAE27386
:10415000A3EBE273B8BF49428B42B8BF0B4607EEF0
:10416000903ADFED0F6AF8EEE77A87EEA67AF7EE7F
:10417000007AB4EEE77AF1EE10FA05DB0121094886
:10418000FFF7F0FB02B010BD0648FFF737FC02B0A6
:1041900010BD00BF0468FF1F3C5EFF1F445EFF1F91
:1041A00000FEFF46145AFF1FF0B5754C754887B0E6
:1041B0003C2108F08FFD204600F0B8FD2046552236
:1041C000202100F0E3FC38B1E28842F0040292B210
:1041D0002046242100F0DAFC672169486A4E6B4CC6
:1041E0006B4F6C4D01F038F800221146644800F026
:1041F000F9FC0D21624800F025FD01AA0021664866
:104200000196039602940494059701F0F3F901AA2C
:10421000012161480196029403960494059701F0E8
:10422000E9F901AA02215C480196029403960494DC
:10423000059701F0DFF9059702940494A7F1AC67A4
:1042400004F1B86401AA03215348019604F5F3244C
:10425000A7F5735704F202443C3F039601F0CAF9F4
:1042600001AA00214D4801950395029404940597F5
:1042700001F0C0F901AA0121484801950294039573
:104280000494059701F0B6F901AA0221434801956B
:10429000029403950494059701F0ACF902940494F8
:1042A00004F1B06401AA03213C483D4E059704F592
:1042B000FF24DF343B4F0195039501F09BF901AAE0
:1042C000002139480196039602940494059701F061
:1042D00091F901AA012134480196029403960494AD
:1042E000059705F1846501F085F901AA02212E48A0
:1042F0000196029403960494059705F5A43501F000
:1043000079F901AA0196039603212748029406F140
:10431000A26605F2211506F5A23604940597234CF2
:1043200001F068F901AA0021214801950395029442
:104330000494059601F05EF901AA01211C4801953B
:10434000029403950494059601F054F901AA022100
:1043500017480195029403950494059601F04AF9D3
:1043600001AA03211248059601950294039504942D
:1043700001F040F90F4B00229A61DA6107B0F0BDFD
:10438000305EFF1F0002FF1F2A920B3D4D7E0D86FF
:104390005524173AAC735B3A685EFF1F045FFF1F3A
:1043A0009A35E837356BD02FA05FFF1FCCE60F831F
:1043B0003C60FF1F905AFF1F2DE9F04FDFF8B491CA
:1043C000DFF8A881D9F80010664BC8F80030002249
:1043D00085B088F80920C8F8102088F80820C8F8A7
:1043E0000C2009B9D7E111464A69002AFBD1C1F86E
:1043F000148000245C4A5D48C8F81440A8F80440C2
:10440000A8F8064088F80A40594F0193C8F80020E0
:1044100001F0D4F9D9F80010019B7C723B603C613B
:104420003C72FC60534A09B9B8E111464A69002A56
:10443000FBD14F610024504ADFF86CB17C61BC8035
:10444000FC80BC724D4801933A6002F0F7FD484889
:104450004B4D4C4EDFF854A101F0D2FD0BF1980208
:1044600001215846FFF76AFC5846214640F8185B80
:1044700080220EF0C3F8444B012103F19802184644
:10448000FFF75CFC4048214640F8185B80220EF0A4
:10449000B5F83E4B012103F198021846FFF74EFC98
:1044A0003A48214640F8185B80220EF0A7F8384BB6
:1044B000012103F198021846FFF740FC34482146D9
:1044C00040F8185B80220EF099F806F128020421CA
:1044D0003046FFF733FC2F4B2F4A32604FF48031C8
:1044E00003F118021846B161F16131627162012174
:1044F000FFF724FC274B294A294D1A6047F6FF7025
:104500004FF40041D88319840AF118020121504662
:10451000FFF714FC2349CAF800104FF0020E019B6C
:104520008AF8F44005F118018AF8F5402246CAF8E5
:10453000F0408AF8F64020462C72EC602B6085F83B
:1045400009E029612C4600E0216941F822006B7ADC
:10455000134901329342F7DCD9F80020054B42BBE6
:104560001EE100BF7872010090740100D860FF1F47
:10457000E85AFF1F5467FF1FB4740100005BFF1F60
:1045800084740100905AFF1F045FFF1FA05FFF1F8C
:104590003C60FF1F445EFF1F9C7401005C740100BF
:1045A000C85AFF1FC0740100685EFF1FF060FF1F44
:1045B0001A465369002BFBD155610024794A7A4B86
:1045C0007A486C61AC80EC80AC722A60019301F097
:1045D00075FB019BDFF818921C72184683E80009EE
:1045E0005C72DC601C7408F0C1FC019B704A71496C
:1045F000DFF8008218460DF0B1FB0123484689F828
:104600000930019389F80840C9F80070C9F80460BE
:10461000C9F80C4089F8104008F0A8FC644A6549C4
:10462000654F48460DF09AFB644BC8F8043040468D
:1046300088F80840C8F800B088F80940C8F80C406D
:1046400088F8104008F092FC594A5A49DFF8A8B19E
:10465000DFF8A89140460DF081FB584B3B6038468F
:10466000574BDFF89C817B603C727C72FC603C7431
:1046700008F07CFC4E4A4F4938460DF06FFB504B1A
:10468000C8F8003040464F4B4F4FC8F8043088F808
:10469000084088F80940C8F80C4088F8104008F035
:1046A00065FC434A434940460DF058FB454B3C727C
:1046B000384687E848007C72FC603C7408F056FC81
:1046C0003B4A3C49DFF83C8138460DF047FB3D4B07
:1046D000CBF8003058463D4BCBF804308BF80840FF
:1046E0008BF80940CBF80C408BF8104008F03EFCEA
:1046F0002F4A3049364F58460DF030FB314B89F880
:104700000840484689E8080489F80940C9F80C407F
:1047100089F8104008F02AFC254A264948460DF041
:104720001DFB404688F80840C8F80060C8F80450EF
:1047300088F80940C8F80C4088F8104008F016FCCA
:104740001B4A1C4940460DF009FB019B7B72384611
:104750003E607D603C72FC603C7408F007FC3846AB
:10476000134A14490DF0FAFA1A4B1B4A1A601B49F6
:104770001B480A221A7209F011F90D4A1949184802
:104780000DF0ECFA184A194B12680392039A1A605A
:1047900005B0BDE8F08FC9F800802AE6176049E649
:1047A00019600AE7A8740100E861FF1FC85AFF1FDB
:1047B0003049FF1F313D0000905DFF1F045FFF1F68
:1047C000A05FFF1F3C60FF1FB85DFF1F445EFF1F1F
:1047D000085EFF1F305EFF1F68740100A4720100B5
:1047E0001C5EFF1FC1DB00000468FF1F3C5EFF1F53
:1047F000685DFF1F7C5DFF1FCC5DFF1FE05DFF1F3D
:10480000A45DFF1FF45DFF1F00B51748ADF5017DE6
:1048100002F052F9012823DD134802F07FF94FF42A
:1048200080720146684609F029FF0F4802F094F9AA
:104830000D4802F073F94FF4807201460DEB02004F
:1048400009F01CFF084802F087F94FF4007269462E
:10485000064802F055FB064A136803F5007313601F
:104860000DF5017D5DF804FBF060FF1F445AFF1F4A
:10487000405AFF1F184A194B002182F8F6101B7886
:104880004BB330B5054685B0154C0EE002F046F945
:104890004FF480720146134802F032FB0E4802F0DA
:1048A0005BF9236803F5807323600B4802F004F979
:1048B00000280948EADC0B4802F0E0FB294668467C
:1048C00009F098F821686846FFF7F4F9684609F09E
:1048D00077F905B030BD7047F060FF1F2058FF1F0B
:1048E000405AFF1F445AFF1F012103200AF016BB44
:1048F000002103200AF012BBF0B5032785B0284D34
:1049000005F1100655F8044B2178013431B12548E2
:1049100007F03EFC14F8011B0029F8D10D212148B5
:1049200007F036FC0A211F4807F032FCB542E9D1F6
:104930001D4C1E4D1B48224603AB294607F090FC38
:10494000039A42F210739A4212D97B1E13F0FF07AA
:10495000D5D13A461649174808F0DAFF39461648C5
:104960000BF090FF134808F0BBFF384605B0F0BDD0
:1049700001220F490F4808F0CBFF28680CF028FDF2
:10498000064620680F460CF023FD3246CDE90001B3
:104990003B460A49074808F0BBFF012005B0F0BDBF
:1049A0003849FF1FFC61FF1FE462FF1FE062FF1F29
:1049B000F0720100004BFF1F307101000073010015
:1049C000014806F091BE00BFFC61FF1F0AF04CB920
:1049D00008B50A4806F054FB06F0AEF9084902464D
:1049E000084808F095FF06F0A7F9074B074A9842D8
:1049F000D4BF00200120107008BD00BFCD490000C9
:104A000004740100004BFF1F6417545CF462FF1F25
:104A100030B502298BB00CD0032908D1044606F02A
:104A2000DBF920460AF026F91A4B01221A700BB066
:104A300030BD09AC0DF11F010DF11E020DF11D037A
:104A40000020049403900291019200930DF11B0247
:104A500007AB08A9104807F03BFC089D9DF81B40D8
:104A60009DF81C309DF81F209DF81E109DF81D001C
:104A70008DE8300006F0D2F94FF4616006F0F8FAE4
:104A800006F05AF90AF0F6F8024B01221A700BB040
:104A900030BD00BFF462FF1FFC61FF1F08B5044B6F
:104AA0000448197806F0FAFC034B0722DA7008BDB7
:104AB000F062FF1F8C66FF1F2058FF1F08B5114BC7
:104AC0001148197806F0EAFC104B1B69BBB1104A7B
:104AD000D269013B9A4207D20E490F4808F018FFED
:104AE0000E4B03221A7008BD17210D480BF0CAFEA9
:104AF000094808F0F5FE094B08221A7008BD044B5E
:104B0000DA69E9E7E862FF1F8C66FF1FE057FF1FC5
:104B10004057FF1F1C740100004BFF1F2058FF1F50
:104B20003C74010008B5044B0448197806F0B6FC43
:104B3000034B07221A7008BDEC62FF1F8C66FF1F33
:104B40002058FF1F70B50021064608F08FF9C0B14C
:104B5000B6F91E40B6F92010031D00F5827533F931
:104B6000022B9442A8BF14469142B8BF11469D4201
:104B7000F5D80123F48331843377BDE8704008F021
:104B800031B970BD0020704700207047F8B5144C53
:104B9000037A242908BFC2805B0001250E46204607
:104BA000C1F30721174684F83B3084F85E5084F83F
:104BB0005D5007F04DFCF1B2204607F049FCC7F309
:104BC0000721204607F044FCF9B2204607F040FCDC
:104BD0002946204607F010FDB0FA80F04009F8BDE4
:104BE000FC49FF1F70B50F29154C037A28BF0F2110
:104BF0000F2A4FEA430328BF0F2201250E46204605
:104C0000002142EA061684F83B3084F85E5084F8AE
:104C10005D5007F01DFC2046202107F019FC2046BE
:104C2000002107F015FCF1B2204607F011FC2946DF
:104C3000204607F0E1FCB0FA80F0400970BD00BFEB
:104C4000FC49FF1F1F29F8B5064640D80C293BD860
:104C500040F60D55334C327A012752000021204690
:104C600084F83B2084F85E7084F85D7007F0F0FBF8
:104C70002E21204607F0ECFB2046002107F0BCFC6B
:104C800050B30023327A27485200012600211D43E9
:104C900084F83B2084F85E6084F85D6007F0D8FB00
:104CA0002E21204807F0D4FBC5F307211D4807F04B
:104CB000CFFBE9B21B4807F0CBFB3146194807F0A0
:104CC0009BFC38B10020F8BD41EA0125C2E741F65E
:104CD0001F75BFE7A8B2F8BD3B460222317A2046D5
:104CE00007F014FD0128CCD994F8381094F8390055
:104CF000814214D263184A1CD2B21B7E84F8382039
:104D000090424FEA03230AD922440231127E84F8EA
:104D10003810134323F4F85323F01F03B2E7024B78
:104D2000B0E700BFFC49FF1FE0E0FFFFF8B5EB4C28
:104D3000012506460571204607F09EFB05200AF076
:104D40005BF9337A84F85E50AB402046002184F84A
:104D50003B3084F85D5007F07BFB2046302107F0A4
:104D600077FB2046402107F073FB2046602107F0C7
:104D70006FFB2946204607F03FFC337A84F85E50EB
:104D8000AB402046002184F83B3084F85D5007F0AA
:104D90005FFB2046262107F05BFB2046002107F041
:104DA00057FB20466C2107F053FB2946204607F0AD
:104DB00023FC337A84F85E50AB402046002184F80F
:104DC0003B3084F85D5007F043FB2046282107F074
:104DD0003FFB2946204607F03BFB2046F22107F027
:104DE00037FB2946204607F007FC337A84F85E50EB
:104DF000AB402046002184F83B3084F85D5007F03A
:104E000027FB20462C2107F023FB20460F2107F02B
:104E10001FFB2046222107F01BFB2946204607F0F6
:104E2000EBFB337A84F85E50AB402046002184F8D7
:104E30003B3084F85D5007F00BFB20463C2107F027
:104E400007FB2046442107F003FB2046462107F0DC
:104E5000FFFA2946204607F0CFFB337A40F237129B
:104E6000F280AB402046002184F83B3084F85E504D
:104E700084F85D5007F0ECFA2046242107F0E8FAA8
:104E80002946204607F0E4FA2046372107F0E0FAE9
:104E90002946204607F0B0FB337A84F85E50AB40D9
:104EA0002046002184F83B3084F85D5007F0D0FAAA
:104EB0002046302107F0CCFA2046402107F0C8FAFE
:104EC0002046FF2107F0C4FA2946204607F094FB4C
:104ED000337A84F85E50AB402046002184F83B30A2
:104EE00084F85D5007F0B4FA2046022107F0B0FACA
:104EF0002046002107F0ACFA2046732107F0A8FAFB
:104F00002946204607F078FB4FF4C8700AF074F881
:104F1000337A84F85E50AB402046002184F83B3061
:104F200084F85D5007F094FA20462E2107F090FA9D
:104F300020461D2107F08CFA20461D2107F088FA33
:104F40002946204607F058FB337A84F85E50AB4080
:104F50002046002184F83B3084F85D5007F078FA51
:104F60002046042107F074FA2046002107F070FA69
:104F70002046042107F06CFA2946204607F03CFB46
:104F8000337A84F85E50AB402046002184F83B30F1
:104F900084F85D5007F05CFA2046062107F058FAC5
:104FA0002946204607F054FA2046302107F050FAEF
:104FB0002946204607F020FB337A84F85E50AB4048
:104FC0002046002184F83B3084F85D5007F040FA19
:104FD00020460A2107F03CFA2046002107F038FA63
:104FE0002046102107F034FA2946204607F004FB3A
:104FF000337A84F85E50AB402046002184F83B3081
:1050000084F85D5007F024FA20460E2107F020FABC
:105010002046002107F01CFA2046002107F018FA6C
:105020002946204607F0E8FA337A84F85E50AB4010
:105030002046002184F83B3084F85D5007F008FAE0
:105040002046102107F004FA20463C2107F000FA20
:1050500020463C2107F0FCF92946204607F0CCFA0F
:10506000337A84F85E50AB402046002184F83B3010
:1050700084F85D5007F0ECF92046222107F0E8F9AA
:1050800020467F2107F0E4F920467F2107F0E0F970
:105090002946204607F0B0FA337A3627AB40F7802E
:1050A0002046002184F83B3084F85E5084F85D503F
:1050B00007F0CEF92046242107F0CAF92046002146
:1050C00007F0C6F93946204607F0C2F929462046BE
:1050D00007F092FA75722846F8BD00BFFC49FF1F21
:1050E0009FED5A7ADFED5A7AE0EE077A2DE9F84320
:1050F000FCEEE77A064617EE904A002C5BD0802C37
:1051000026D933790024274663BB524D337A514860
:105110005B000126002185F83B3085F85E6085F84C
:105120005D6007F095F922214A4807F091F9394668
:10513000484807F08DF92146464807F089F931467D
:10514000444807F059FAB0FA80F04009BDE8F88306
:10515000C4F18004337944EA0424C4F30727E4B299
:10516000002BD2D0B6F806803A4D337A28F01008DA
:1051700000215B003171A6F806804FF00109284636
:1051800085F83B3085F85E9085F85D9007F060F912
:105190002846242107F05CF94FEA1821284607F039
:1051A00057F908F0EF01284607F052F9494628461A
:1051B00007F022FAAAE7274D037A012717EE901A83
:1051C000BB400771284685F83B3085F85E7085F84E
:1051D0005D7007F03DF92846222107F039F928468D
:1051E0007F2107F035F928467F2107F031F939464C
:1051F000284607F001FAB6F80680337A48F010081E
:105200001FFA88F8BB40A6F806802146284685F894
:105210003B3085F85E7085F85D7007F019F9284617
:10522000242107F015F94FEA1821284607F010F954
:105230005FFA88F1284607F00BF93946284607F04F
:10524000DBF9B0FA80F04009BDE8F88300000143C3
:10525000EE7CFF3EFC49FF1F2DE9F84306460C4655
:1052600000295BD0802926D9337900252F4663BBDE
:105270004F4C337A4E485B000126002184F83B30C6
:1052800084F85E6084F85D6007F0E2F82221484807
:1052900007F0DEF83946464807F0DAF82946444870
:1052A00007F0D6F83146424807F0A6F9B0FA80F088
:1052B0004009BDE8F883C1F18005337945EA052549
:1052C000C5F30727EDB2002BD2D0B6F80680384CD4
:1052D000337A28F0100800215B003171A6F80680AF
:1052E0004FF00109204684F83B3084F85E9084F842
:1052F0005D9007F0ADF82046242107F0A9F84FEAA9
:105300001821204607F0A4F808F0EF01204607F026
:105310009FF84946204607F06FF9AAE7244D037A23
:105320000127BB400771284685F83B3085F85E7041
:1053300085F85D7007F08CF82846222107F088F880
:1053400028467F2107F084F828467F2107F080F85F
:105350003946284607F050F9B6F80680337A48F007
:1053600010081FFA88F8BB40A6F806802146284698
:1053700085F83B3085F85E7085F85D7007F068F859
:105380002846242107F064F84FEA1821284607F040
:105390005FF85FFA88F1284607F05AF83946284640
:1053A00007F02AF9B0FA80F04009BDE8F88300BFA1
:1053B000FC49FF1FF8B506460D4619B1012945D035
:1053C0000020F8BD534C037A01275B00204684F887
:1053D0003B3084F85E7084F85D7007F039F8202166
:1053E000204607F035F82946204607F031F85521C8
:1053F000204607F02DF83946204607F0FDF8002832
:10540000DED1F588337A45F00405ADB25B00F58056
:105410000146204684F83B3084F85E7084F85D7065
:1054200007F016F82421204607F012F8290A204632
:1054300007F00EF8E9B2204607F00AF83946204690
:1054400007F0DAF8B0FA80F04009F8BD314C037A81
:1054500084F85E505B000021204684F83B3084F8DD
:105460005D5006F0F5FF2A21204606F0F1FF29469F
:10547000204606F0EDFF7321204606F0E9FF29469D
:10548000204607F0B9F80746002899D1337A84F806
:105490005E505B000146204684F83B3084F85D5046
:1054A00006F0D6FF2021204606F0D2FF39462046DE
:1054B00006F0CEFF8821204606F0CAFF2946204686
:1054C00007F09AF800287FF47BAFF788337A27F04B
:1054D00004075B00F7800146204684F83B3084F8DF
:1054E0005E5084F85D5006F0B3FF2421204606F09C
:1054F000AFFF390A204606F0ABFF07F0FB0120465C
:1055000006F0A6FF2946204607F076F8B0FA80F0AC
:105510004009F8BDFC49FF1F2DE9F04F83B0002181
:105520000446009007F0AEFC019000285ED000F524
:10553000827900F1040A04F13808A8F1200B58F828
:10554000042C58F80C4C58F8106C58F8147C58F887
:10555000081C9BE80058C2F30D0355461A46234623
:105560005446C246B04628683BFB00223CFB13224F
:105570003EFB032237FB112238FB012222F38F3638
:10558000C2F30D023BFB10223CFB00223EFB132327
:1055900037FB063338FB113323F38F31C6EA014161
:1055A00045F8041BA945C3F30D020346DBD8D046DA
:1055B000A246044658F8040C48F8081C134600F0AC
:1055C0000040034348F80C4C48F8043C08F120081C
:1055D0000028B2D102469DE81100214607F02CFCBC
:1055E000204603B0BDE8F04F07F0FCBB03B0BDE8B8
:1055F000F08F00BF032917D870B418304C0103197D
:1056000072B691B911680151D0681169DC695668A8
:1056100095689D6004F0004440424A425E60DC614F
:10562000D8601A6162B670BC704753F8041C41F030
:10563000004143F8041CE5E710B5044607F0F2FD0D
:10564000204610BD024A034903480CF087BB00BF47
:105650003049FF1F39560000F862FF1F38B5074D6B
:10566000074C08482A4621460CF078FB2A4621467A
:105670000548BDE838400CF071BB00BF3049FF1F42
:10568000395600000063FF1F0863FF1F1A4A1B4BB7
:1056900011681B48096970B499421279027008D2E6
:1056A000184A12782AB3184A0121116003F5807450
:1056B00002E01C46A3F58073144A154912680D6870
:1056C000AAB1A5B1134E3088402810D841000A4431
:1056D0004030294402320231308033F9040B22F881
:1056E000020F9C4233F9020C21F8020FF5D870BC6E
:1056F000704703F58074DFE71863FF1FF03FFF1F5B
:105700001F8000401263FF1F08E200E02063FF1FBC
:105710001463FF1F1063FF1FF8B5064607F00EFB6A
:105720000446E8B107F00AFB054600283AD072B6F5
:105730001F4B1A887F2A19D8002C31D01D490A68BE
:1057400042B162B6204607F04DFB2846BDE8F8405E
:1057500007F048BB18480C601A80056062B6F8BDB7
:10576000054672B6124B1A887F2AE5D9114A1249AA
:105770001768146000220C681A800D6062B6394602
:10578000304607F059FB384607F02CFB30462146DF
:10579000012207F051FB2046BDE8F84007F022BB8C
:1057A00062B6F8BD204607F01DFB2C46BFE700BFE0
:1057B0001063FF1F2063FF1F1463FF1FF8B5284C01
:1057C000284E2046012107F08FFC00F055FB264BA8
:1057D000264A27484FF480611960236800211A6027
:1057E00099802279186102F1804202F5043240F278
:1057F0000110D8809E614FF48075022006278C2608
:10580000DD82D960DD8398609F8398821170167065
:1058100007F010FC1749184B2279184F08701A70BE
:1058200039682279164C174D174E41F0124141F05C
:105830000101531139609B00206803F1604302F1BC
:10584000100703F5614302F01F02012140F01040F0
:1058500001FA02F2206045F827601A60F8BD00BF27
:105860001863FF1F00FEFFFF14B00440A2F00240C7
:10587000F03EFF1F1263FF1F1B80004080F00240BC
:1058800000F002400044FF1F8D560000024A034909
:1058900003480CF063BA00BF3049FF1F39560000BF
:1058A0001863FF1F024A034903480CF057BA00BFB0
:1058B0003049FF1F395600002463FF1F024A034985
:1058C00003480CF04BBA00BF3049FF1F39560000A7
:1058D0002C63FF1F024A034903480CF03FBA00BF84
:1058E0003049FF1F395600003463FF1F2DE9F04F88
:1058F00000F5807EB1E8A00AB2E84015C5EA06438B
:10590000C6EA2544C7EA0845C8EA2746C9EA0A475D
:10591000CAEA2948CBEA0C49CCEA2B4AA0E8F807A6
:105920008645E7D1BDE8F04F70474FF000022DE902
:10593000F00F00F5807C00BFB1E8A00AC5EA0203C1
:10594000C2EA2544C7EA0205C2EA2746C9EA0207B5
:10595000C2EA2948CBEA0209C2EA2B4AA0E8F807C2
:105960008445E9D1BDE8F00F70474FF000022DE902
:10597000F00F00F5807C00BFB1E8A00AC2EA054341
:10598000C2EA0504C2EA0745C2EA0706C2EA0947B5
:10599000C2EA0908C2EA0B49C2EA0B0AA0E8F80702
:1059A0008445E9D1BDE8F00F70472DE9F00F089C60
:1059B00000F5007B51F8045B53F8046BC5EA064719
:1059C000C6EA254952F8045B54F8046BC5EA064858
:1059D000C6EA254AA0E880078345EBD1BDE8F00F71
:1059E000704700BF2DE9F8434FF00008064600F16C
:1059F0001805474641463046002F4FD007F036FA8B
:105A0000F0B12C68B4F5803F07F1040100F1040EF9
:105A100007F5827C27D05EF8042B34FB02F334FBBD
:105A200012F903F30F0209F30F03C2EA03430A68F2
:105A300093FA12F341F8043B8C45ECD807F0D2F905
:105A400008F10108B8F1040F05F10405D2D1002FC7
:105A500040D030463946002207F0EEF93846BDE81E
:105A6000F84307F0BFB907F10C0100F10C0451F83D
:105A7000083C54F8082C93FA12F341F8083C54F807
:105A8000042C51F8043C93FA12F38C4541F8043C81
:105A900004F1080401F10801E9D8CFE707F0F2F9B1
:105AA00007460028CCD02868B0F5803FC8D0391D03
:105AB00007F582740B6830FB03F230FB13F302F33B
:105AC0000F0203F30F03C2EA034341F8043B8C4285
:105AD000F0D8B5E7BDE8F883024A034903480CF063
